:020000040000FA
:02000000FD2BD6
:1007680083169F0107308312990083160514851498
:100778000512851283120514851405128512831239
:100788000518C72BC82BDF2B0310051E03140318ED
:10079800CE2BD12B83120516D32B831205120230D0
:1007A800A2008630A1009930A000A00BD92BA10B84
:1007B800D92BA20BD92B83128518E32BE42BC32B3F
:1007C8000310851E03140318EA2BED2B83128516DC
:1007D800EF2B831285120230A2008630A1009930D7
:1007E800A000A00BF52BA10BF52BA20BF52BC32B0F
:0607F80000288301B42B70
:02400E009431EB
:00000001FF
