:020000040000FA
:02000000FE2FD1
:100F24008312031306101930F1000530F000F00BA2
:100F3400992FF10B992F831203130614D630F00066
:100F4400A32FA42FF00BA22F000008008312031379
:100F540006101930F100AB30F000F00BAF2FF10B9D
:100F6400AF2FB42F831203130614C730F000BA2F27
:100F7400F00BB92FBD2FBE2F0800831203130610E8
:100F84001830F1005F30F000F00BC62FF10BC62FC4
:100F94008312031306140330F1009730F000F00BB2
:100FA400D12FF10BD12FD62F080007308312031352
:100FB4009F000330831603138500860103308312D8
:100FC400031385008601831203130518EA2FEB2F00
:100FD400F12F851CEE2FEF2FF12FBF27E52F051CD6
:100FE400F42FF52FFB2F8518F82FF92FFB2FA827A7
:0C0FF400E52F9227E52F00288301D72F5E
:02400E00FBFFB6
:00000001FF
