:020000040000FA
:02000000F62FD9
:100E06000134003400340034831203132D08F30038
:100E16002C08F2002B08F1002A08F0004130F700F8
:100E2600C630F6004E30F5006D30F4004A277308E0
:100E360083120313AD007208AC007108AB00700892
:100E4600AA003930AA07303003183130AB0700301A
:100E560003180130AC07003003180130AD072A082B
:100E6600A2002B08A3002C08A4002D08A500103012
:100E7600A600250DA50CA40CA30CA20CA60B3C2FBA
:100E8600FF302205A0007F302305A10008000030B6
:100E9600FC000030FB000030FA000030F900701C46
:100EA600552F562F6D2F7408F9077508031103186F
:100EB600013E03195F2FFA07760803110318013E56
:100EC6000319662FFB07770803110318013E031960
:100ED6006D2FFC070130F8000310F40DF50DF60D2B
:100EE600F70DF80B6F2F01300310F30CF20CF10C19
:100EF600F00CFF3E031D772F730872047104700413
:100F0600031D862F872F522F7C08F3007B08F200E3
:100F16007A08F1007908F0000800073083120313FD
:100F26009F00033083160313850086010330831266
:100F36000313850086010727831203132108AF00D8
:100F46002008AE002E0C031C05110318051503100E
:100F5600851D03140318B02FB42F831203138515B0
:100F6600B72F831203138511C82F0518BB2FBC2F6B
:100F7600BD2F05115B3083120313A800E730A700CD
:100F8600A70BC32FA80BC32F000083120313051949
:100F9600CD2FCE2FB82FDF2F8518D22FD32FD42FBA
:100FA60085115B3083120313A800E730A700A70B57
:100FB600DA2FA80BDA2F0000831203138519E42F0A
:100FC600E52FCF2F033083120313A9008A30A80020
:100FD6005530A700A70BED2FA80BED2FA90BED2F72
:100FE60000009E2F00280327AA000427AB00052730
:0A0FF600AC000627AD008301902F28
:02400E00FBFFB6
:00000001FF
