:020000040000FA
:02000000FE2FD1
:100F46000730831203139F000330831603138500B3
:100F560003308312031385000518B22FB32FD62F43
:100F660083120313051585110330F2008A30F10050
:100F76005530F000F00BBD2FF10BBD2FF20BBD2F3E
:100F8600C42F83120313051185150330F2008A302E
:100F9600F1005530F000F00BCE2FF10BCE2FF20BF7
:100FA600CE2FD52FB32F8518D92FDA2FAF2F831237
:100FB6000313051585150330F2008A30F10055300C
:100FC600F000F00BE42FF10BE42FF20BE42FEB2FE4
:100FD60083120313051185110330F2008A30F100E4
:100FE6005530F000F00BF52FF10BF52FF20BF52F26
:0A0FF600FC2FDA2F00288301A32F3F
:02400E00F8FFB9
:00000001FF
